:100026001FEF10936D0008951FEF10937000089551
:100036001FEF10936F000895219748E610E0312FC7
:10004600E89440F8A0E0B0E050E0A2D418E6412FD2
:10005600FE01A1E0B0E08ED4188103D60895219761
:1000660048E611E0312FE89440F8A0E0B0E050E017
:100076008FD418E6412FFE01A1E0B0E07BD41881B1
:10008600F0D50895219748E612E0312FE89440F81C
:10009600A0E0B0E050E07CD418E6412FFE01A1E0DC
:1000A600B0E068D418811F73DCD5089521971981B3
:1000B600E0D51F77188348E610E0312FE89440F822
:1000C600FE01A1E0B0E050E063D4089521971981C4
:1000D600D0D5188348E611E0312FE89440F8FE01A8
:1000E600A1E0B0E050E054D40895219719811F7122
:1000F600C0D5188348E612E0312FE89440F8FE0197
:10010600A1E0B0E050E044D4089517E018BB18E32E
:1001160017BB10E015BB1FE014BB10E012BB1FEFAE
:1001260011BB08951E2D1F7015BBD2BA089515B3C5
:10013600107F15BB10E012BB0895F9DF11277BE095
:10014600B71610F4B3941FEF1095112371F010E059
:10015600B12EC398C59A000000000000C598C39A46
:10016600E2E7F0E0D190E08005C0C59A000000000B
:100176000000C598E2E7F0E00B2D1127000F111FD4
:10018600E00FF11FD190E080CDDF089521970A811D
:1001960002950F700883E2E7F0E01127000F111FA8
:1001A600E00FF11FEF93FF93E2E7F0E008811127DC
:1001B600000F111FE00FF11F2191308109811A8173
:1001C600022B132BFF91EF9101931083089524972F
:1001D600EAE0F0E0FA93EA9310E010831BE01A934A
:1001E60010810881011798F0E2E7F0E00A2D112747
:1001F600000F111FE00FF11F10E000E001931083C4
:10020600E981FA81108113951083112351F7239602
:1002160010E018831D8105E077D40A8310E0198366
:100226001D8105E071D41B831A81103049F41CE04E
:1002360008E31A930A93AADF239610E10FE10CC094
:10024600113011F0123069F41DE000EC1A930A9394
:100256009DDF23961FE200EC1A930A9397DF2396FD
:1002660019C0133011F01430A9F41CE008E31A93F6
:100276000A938CDF23961FE100EC1A930A9386DF1C
:1002860023961B8113951B831D81193319F010F0DA
:1002960011E019831B81103011F01C3019F41FEF87
:1002A600188368C0113019F410E20EE10EC0123046
:1002B60019F41FE400E009C0133019F410E30EEF3F
:1002C60004C0143069F410E40FE71A930A935EDF52
:1002D60023961FE500E01A930A9358DF23964AC037
:1002E600153049F410E20EE11A930A934FDF239674
:1002F60010E500EE0DC0163009F40EC01730A9F453
:1003060010E20EE11A930A9341DF23961FE500E0FF
:100316001A930A933BDF239610E50FE01A930A938C
:1003260035DF239611E0198325C0183019F410E43F
:100336000FE709C0193019F410E30EEF04C01A30A4
:1003460049F41FE400E01A930A9320DF239610E590
:1003560000EEE4CF1B3071F410E20EE11A930A931B
:1003660015DF239610E500EE1A930A930FDF239606
:1003760011E019830E811981100F1E83103021F0B0
:100386001C3011F0183119F410E70FE149C0113093
:1003960011F01D3049F41881112319F013E600E815
:1003A6003FC013E600EC3CC0123011F01E3019F4C9
:1003B60010E800EF35C0133011F01F3011F41FE6BE
:1003C6002EC0143011F0103111F41FE828C015307A
:1003D60011F0113119F413E700EC22C0163011F0B8
:1003E600123119F410E90EE31BC0173011F0133166
:1003F60019F410E60EE714C0183011F0143119F490
:1004060010E80FE00DC0193011F0153119F417E995
:1004160000E806C01A3011F0163139F41FEA00E080
:100426001A930A93B3DE23960AC01B3011F01731D4
:1004360031F41EE700E01A930A93A8DE239618818A
:10044600112331F010EA00E71A930A939FDE2396F0
:100456001E81103041F0113031F0123021F013308E
:1004660011F0143019F41FEB00EC28C0153041F0E0
:10047600163031F0173021F0183011F0193011F420
:10048600000030C01A3011F01B3019F410EA07E0F2
:100496000FC01C3089F01D3009F40EC01E3031F03B
:1004A6001F3021F0103111F0113169F41FEB00E01B
:1004B6001A930A936BDE239610EB0FE31A930A93B3
:1004C60065DE23960FC0123161F0133151F01431FD
:1004D60041F0153131F0163121F0173111F0183194
:1004E60009F40000089511DE08EE13E020E030E084
:1004F6003A932A931A930A93A2D22496B7D21FEF5D
:1005060010936E0014E110938B0010E8412A789442
:100516001FEF1093700090DD2196A12EAA92C6DDE2
:10052600229610916D00112351F010E010936D008A
:100536006894C499E89418B314F918BBFEDD1091B9
:1005460070001123C9F01AE010938B0010E010938D
:10055600700085DD219610938E0094DD2196109310
:100566008D001A9310918E001A9310E01A932FDEC5
:1005760027961FEF1093710010916F00112309F455
:100586006BC010E010936F00B19929C0EDE8F0E060
:100596002497FB83EA8317E1198310E0188354D369
:1005A600249610918D001A93A0DD229610E01A93DE
:1005B6007DDD229610918D0089D210E072D21091C5
:1005C6008D001A9310918E001A931FEF1A93FFDD78
:1005D60027961FEF1093710010E010936E00B099EC
:1005E6003BC0EEE8F0E02497FB83EA831BE3198324
:1005F60010E0188329D32496112359F0EDE8F0E092
:100606002497FB83EA8317E1198310E018831CD330
:10061600249610918D001A9368DD229610918E0013
:100626001A9354DD229610E01A9340DD229610911B
:100636008E0046D210E035D210918D001A9310919B
:100646008E001A931FEF1A93C2DD27961FEF1093A1
:10065600710010E010936E0010916E00112309F4E2
:1006660060CF1FEF00918A00002309F01095012F3B
:1006760010916E001023112309F453CF10E005E00A
:100686001A930A930FE01A930A93C1D22496102F55
:1006960010938A00EAE0F0E0FA93EA9310E0108300
:1006A6001BE01A9310810881011728F1E2E7F0E0B8
:1006B6000A2D1127000F111FE00FF11FEF93FF9373
:1006C600E2E7F0E00A2D1127000F111FE00FF11FDE
:1006D60001911081980188D2020F131F0F7F1F709E
:1006E600FF91EF9101931083E981FA8110811395AF
:1006F60010831123C1F62396112700918B0070E019
:10070600701720F40A9500938B001FEF10951123A4
:1007160069F010E010936E0010918D001A931091FD
:100726008E001A9310E01A9352DD2796FACE000037
:10073600FECFF89410E000EC1EBF0DBF1127E0E1DC
:10074600F0E0A0E0B0E031960000319711F01D9383
:10075600FCCFA0E6B0E0E0E0F4E03196000031978F
:1007660011F01D93FCCFC2EFD0E0F8941FE74122B1
:1007760012EB1093600012BF15E013BF11E019BF12
:1007860010E010934F0018E010934E00109368008D
:1007960010E00FEF10934B0000934A0010936A008D
:1007A6000093690010E210B91FEF10936C00442407
:1007B600552499CEEF93FF930F931F931FB71F9363
:1007C6001091600002B7100F12BF1FE7412200917F
:1007D6006B00002319F00A9500936B00AF93BF934B
:1007E600E1E6F0E0A081B1811196A083B183A13743
:1007F60051F4B23041F4A281B3811197A283B3833D
:10080600112710831183A281B381119604E610E0AB
:10081600A017B10738F0A01BB11BA283B383BF9109
:10082600AF9105C0A283B383BF91AF9127C02F9329
:100836002227E5E6F0E01081018113951C3390F044
:1008460010E003951193216011810C3368F000E0EC
:100856001395019322600181183120F010E0039571
:10086600108303C0108301C000832F93E1DB2F9117
:100876002F93217009F0D8DB2F912F9110918A00C8
:10088600112319F0115010938A0010E8412A1F9184
:100896001FBF1F910F91FF91EF911895EF93FF9353
:1008A6000F931F931FB71F93BBDB1F911FBF1F9192
:1008B6000F91FF91EF91189510E010936C0011B114
:1008C6001C7F103011F410E916BF14EA16BF1AE0A7
:1008D60010936B0016B7107831F410916B0011234A
:1008E600C9F716BF3FC011B11C7F1830C9F53AC011
:1008F60011B11C7F183FE1F3103019F410E916BF4F
:10090600000004E906BF1FEF10936C00089543B979
:1009160014E816BF1AE010936B0016B7107829F486
:1009260010916B001123C9F71DC011B11C7F18323D
:10093600B9F01831A9F0103499F014C014EC1197DD
:10094600BAF209F414E816BF16B717FFFDCF11B1B6
:100956001C7F183511F0103529F413B11193EECF21
:100966001FEF089511B11C7F103011F410E916BF66
:1009760010E00895A1DF0894441FC9DF112319F080
:10098600DDDF112369F7EEDF0FEF00936C000895AA
:1009960093DF8894441FBBDF1123E1F0432FB7DFB9
:1009A6001123C1F040FA26F4422FB1DF112391F052
:1009B600AA2311F4BB2361F0552311F4419106C01B
:1009C600513011F4459102C096D031961197EDCF72
:1009D6008FDFC6CFC7DF0FEF00936C001127089596
:1009E600E89445F800E210E020E030E07B816A817F
:1009F6005981488198D0369527951795079536954C
:100A060027951795079541E00FC04395369527958D
:100A1600179507953695279517950795443020F431
:100A26003695279517950795222379F7332369F786
:100A3600512F463010F41FEF089510E008952DD081
:100A4600CFDF112309F40895152FF89410934B0066
:100A560000934A0010916800187F142B10934E00E3
:100A66001093680047FC78941FEF089520E0F894EF
:100A760020934D0020934C00109158001061109364
:100A86005800109159001061109359001091680098
:100A960010934E0047FC7894089510E010934E0092
:100AA60008951C3308F010E0F894E1E6F0E01483B2
:100AB60010E0119311931193119347FC78940895C4
:100AC6001C3308F010E0109366000895183108F002
:100AD60010E01093670008952150304018F01191EE
:100AE6001D93FACF089547FC7894E199FCCFF894CA
:100AF600E199F9CF0895F7DFEEBBFFBBE09A00005E
:100B06004DB347FC78940895332729E0111F2A95A1
:100B160011F4032F0895331F301B18F4300F8894F7
:100B2600F5CF0894F3CFD801F90145FACEF48F2F0B
:100B36008727E89487FF45F8F7FF08C0A095B0958A
:100B4600E095F095AF5FBF4FEF4FFF4F77FF08C0BF
:100B560040955095609570954F5F5F4F6F4F7F4FF3
:100B6600992788271124002410E2769567955795D2
:100B7600479520F48A0F9B1F0E1E1F1E179407947D
:100B86009795879577956795579547951A9589F718
:100B96008A019B01A00145FA86F4015010402040CD
:100BA6003040804090404040504020953095109510
:100BB600009580959095409550950895012FF5E5FF
:100BC600F123169515751F0FF3E3F1231695169568
:100BD60013731F0FFFE0F12312951F701F701F0F75
:100BE600117009F01FEF0895772031F4882021F461
:100BF60013EB712E10E4812E172D107DDFDF73FCB1
:100C06001095111F771C881C072D182D0895ECDFF1
:100C16002A813B81A881B981A217B307A1F020F4EC
:100C2600AA81BB8128813981FD01E21BF30B0217E2
:100C3600130718F40E0F1F1FF7CFA017B10718F4EC
:100C46000E1B1F0BFACF0895EA81FB8100812981D3
:100C5600021718F01FEF088102C0039511270083C1
:100C66000895012F0F70105110F0065FFCCF102F62
:100C7600089500271A5010F0005FFCCF165F100F82
:040C86000895189520
:100000009BC342C641C640C63FC63EC64AC43CC664
:100010003BC6D3C339C638C637C636C635C634C65E
:0600200033C632C631C6F2
:00000001FF
